:10000000020D7B020E0639B0000622020F506D333E
:10001000020C49020E4853DC7F2222020F8F7F2000
:10002000BE28000068270B2A300B341B2A306932A7
:1000300000020B2A208D231B2A20692200021B2488
:100040000B2A30BD3278066932000489342243DC41
:10005000802222020E8AC2AF222222020ECCD2AF0E
:01006000227D
:10006300020FCE7D13800E9000820BEA007D301BC1
:0E007300044D3378F87D311B144D3378EA22AA
:10008300020F0E7E3413889000821BEA307E340008
:0E009300049000841BEA302202100D02148833
:1000A30002104C02033C6E00807CB1337CB0336899
:1000B3000D0468EF7CB5337CB43378037F102204DE
:1000C30068E17D5092F77D457D51BF2140067C80DC
:1000D3007F017F121202FF7EA1D05CB0047803205F
:1000E300D5C17CB00478075002B2D502034492D53F
:1000F300BE80FF68F67CB89CB06C00602AB418051B
:100103007C4102031850FB80032F00047C9B5E900C
:100113000778F630E4067C437D106D0030E3087CFD
:10012300437C327C210A0030F5199F10780E22029D
:1001330003411B8068F92F1150020B707CB530E727
:10014300F1801B2D317CB5A5397C5B50110B807878
:10015300030203441E341350034E60801A2B020320
:10016300185D22680D5D0078122D220B4068099FEF
:1001730011222D000B0078F902033C1202FF5C8070
:100183000B806808248150072CB0500A0203442CCA
:10019300B040030203417C8B5D1178267CB17CA5C2
:1001A300BE1080680A5D33780DA5BD80057F1002FF
:1001B300032E6D0080307F017C5B7CB17CA5AD128A
:1001C30080245D337806A5BD80F080E1CA887D4137
:1001D300AD437CB17CA5AD122D1450020B047C5BA6
:1001E300AD232F01DA88A42D05BE008040060B80C5
:1001F300780480982F007C437C507C617C720203DE
:1002030018BE24FFFF6806BE04FFFF780302033C09
:100213001202FF5CB00468F57CB8A54868EF7CB8AF
:1002230070039F1122A5B800030203442E008150DE
:10023300079C8038070203419C8050ED0A51C2E7B6
:100243004D51780302032E7E5400807E901A6C0079
:1002530080061B9068142F11BF1040049F104CABF5
:100263000330E7EECAA86CAA80E8DA39DA587C4A88
:10027300BE5080500A1B8068BC2F1150020B7002C5
:1002830003187EA020800C7EA01080057EA0086C41
:10029300556D333392D5500A6E34FFFF6E24FFFF42
:1002A3000B1CA5EC3340062F11D5F0F6227CBA24A3
:1002B3007EA2D5137C767C65A5CC92E77C5B227C01
:1002C300B5337CB43392D54E5080248140039F11C3
:1002D300227C457C567C676C7724E0500E7E1CFFA5
:1002E300FF221E341E2450034E60800478F430D560
:1002F3000A6E34FFFF6E24FFFF0B1C222D0092D5E4
:100303000E104E10807D422D445002B2D54E5080C7
:100313006C447CB8222C4450120B1C7E40005E506F
:100323007FBE18000078040B806816A2D57CB81332
:100333007C4B7CB592E77C5B227E1CFFFF229F11E6
:10034300227E24FF8020D5026C456D3322C2D57CEA
:10035300B430E708B2D56E24FFFF0B247CB630E738
:1003630012B2D56E34FFFF0B348D326E24FFFF0BB8
:100373002480028D3230D5066E34FFFF0B34226D9C
:100383000074104D00780B4D2278278D317D126D4E
:1003930022227D437D326D222F112D445002A50F61
:1003A300BF1040049F100B901478ED7F016D227DE8
:1003B30034227D417D138D247D022F004004BD0432
:1003C30040049D040B141478F17D237D317D106D61
:1003D30000227DE27F607DF3439B80BE6801F428A9
:1003E3001B7E34C3807E2401C97F061203846D0003
:1003F3007DB20B248D327DA31BA4801C7E34C3806D
:100403007E2401C97F061203847E142710120382FF
:100413007DB31BB47EA427107D2EE412028A7E14C2
:1004230040007E04461C1202047F017D2AE412026E
:100433008A1201641202C27DE3BEF4004058030233
:1004430004F77D5F0E540E540E540E541B563E5447
:100453007CAB7E14000160053E141478FB7E34FEF1
:10046300B57E24007E7E1BB04CB37A1BB07D3F5E0D
:100473003400037CBA60053E341478FB7C677E1439
:10048300FEB67E04007E7E0B704C767A0B707D5F29
:100493000E540E540E540E545E5400013E543E54FA
:1004A3007E34000160053E341478FB7C677D1F0EAB
:1004B300140E140E140E140E141A021A007F202F99
:1004C300202F222E4400FF2E2814DF691200020B76
:1004D3002A007E0B704C767A0B707D1B0A127E34D9
:1004E300FEF07E24007E7A1B307D3B7C377E34FE1B
:1004F300F10205BD7D5F0E540E540E540E543E544E
:100503007CAB7D3F7CB754017E3400017D236005C5
:100513003E241478FB7CBA60053E241478FB7E14D9
:10052300FEB17E04007E7E0BB04CB57A0BB07D2FFE
:100533005E2400070E247CBA60053E241478FB7CFD
:10054300457E14FEB27E04007E7E0B504C547A0B23
:10055300507D2F0E240E240E240E245E2400013E13
:10056300243E247D5F5E5400013E542D5260053EBF
:10057300341478FB7C677D1F0E140E140E140E14B6
:100583000E141A021A007F202F202F222E4400FF60
:100593002E2814DF691200020B2A007E0B704C76A2
:1005A3007A0B707D1B0A127E34FED07E24007E7A85
:1005B3001B307D3B7C377E34FED17E24007E7A1B4C
:1005C300307D1A0A127D3F0E340E340E340E340E73
:1005D300340E341A261A247F212F212F222E440071
:1005E300FF2E2814D7693200020B2A207A1B307D94
:1005F3003A7C377D3F0E340E340E340E340E340EF7
:10060300341A261A247F212F212F222E4400FF2E55
:100613002814D7693200020B2A200B1C7A1B307D69
:100623001E0A127D3F0E340E340E340E341A261A6F
:10063300247F212F212F222E4400FF2E2814B76957
:100643003200020B2A207A1B307D3E7CB77D3F0EA1
:10065300340E340E340E341A261A247F012F012F40
:10066300007F602EC400FF2E6814B7693600020BAA
:100673006A200B1C7A1BB02E0400FF2E0814EF69AE
:100683003000020B0A207E1BB044607A1BB07D3F12
:100693000E340E340E340E341A261A247F012F0121
:1006A3002F002E0400FF2E0814EF693000020B0AFE
:1006B300207E1BB044087A1BB022CAF87CFB7F6003
:1006C3007DE27DF3BEF4000118577E14000BAD1FCD
:1006D3007D012E04001E7A11827A01837EEBA07CB9
:1006E300BA64FF52897D012E0400207A11827A01B7
:1006F300837EEB607CB664FF52937D212E24001F22
:100703007A51827A41837EEB707CB764FF52950AFB
:100713000A7D10AD1E7CB342897CB6ACBF7C6B8076
:1007230055BEF40002785F7E14000BAD1F7D012ED1
:1007330004001E7A11827A01837EEB607D012E0410
:1007430000207A11827A01837EEBA07CBA4CB664D6
:10075300FF52937D212E24001F7A51827A41837E9A
:10076300EB707CB764FF52950A067D10AD1E7C6367
:100773007CBAACBF4C6B7CB6429390008EE0AC7BF2
:100783007CB7429580597E14000BAD1F7D012E046A
:1007930000207A11827A01837EEBA07D012E040072
:1007A3001E7A11827A01837EEB707CB74CBA7D414D
:1007B3002E44001F7A91827A81837EEB604CB6646B
:1007C300FF52DB0A077D10AD1E7CBAACBF7CA34C85
:1007D300AB90008E7EEB70AC764C7A7CB742DB7DBF
:1007E3003F7D2E7D1D120BF4DAF822CA3B7F717F09
:1007F300600B6A304D33680302088D693600106957
:1008030026000E7F071200A97F517F762EF4001A6F
:10081300693700020B7A207F051200AC793700029A
:100823001B7A20691600186906001669F600146918
:10083300E600127F171200A97F4179F6001879E6C6
:10084300001679B6001479A600126916001C690611
:10085300001A69360008692600061201647F71696F
:10086300360004692600027F051201647F07120027
:10087300AC7F716936000C6926000A7F041201649B
:100883007F071200AC7F3102091769360010692611
:10089300000E7F071200A97F5169F6001469E60074
:1008A300126D337E2440007F071201647F017F15A0
:1008B3001200A969160018690600161200AC7F41E0
:1008C3007F157F071200A96916000469060002124A
:1008D30001647F7169360008692600067F051201ED
:1008E300647F071200AC7F716936000C6926000A29
:1008F3007F041201647F071200AC7F316936001454
:1009030069260012793600187926001679B6001484
:1009130079A600127F13DA3B22E4900016F07410DC
:1009230090001DF07480900020F0740490001EF07D
:10093300740190001FF06D3390001B1BEA30900090
:1009430021F07440900028F090002BF0900029F0E3
:10095300740290002AF09000261BEA3090002CF0DD
:100963007410900033F07404900036F07408900013
:1009730034F07404900035F09000311BEA307403B6
:10098300900037F0740890003EF07402900041F03C
:10099300740490003FF07401900040F090003C1B01
:1009A300EA307404900042F07480900049F074209F
:1009B30090004CF0744090004AF0741090004BF09B
:1009C3009000471BEA307E3400167E24000190001D
:1009D30000793E00021BEA207E3400217E240001C0
:1009E300900006793E00021BEA207401900004F097
:1009F3007402900005F0741090000AF074209000C7
:100A03000BF07E3400377E24000190000C793E0009
:100A1300021BEA207E3400427E24000190001179FB
:100A23003E00021BEA207401900010F0900015F0C4
:100A330043A80A43E764227DE27DF30E340E340EAD
:100A4300340E340E340E341A261A247F012F012F4C
:100A5300002E0400FF2E0814D7693000020B0A2071
:100A63000B1C7E1B700AC7693000020B0A207E1B19
:100A7300700AD77D3D7C676C777DD34DDC7D2EE49A
:100A830012028A7E1440007E04461C1202047F0177
:100A93007D2DE412028A1201641202C27D137D3F8E
:100AA3000E340E340E340E341A261A247F212F21CD
:100AB3002F222E4400FF2E2814B7693200020B2A7E
:100AC300207A1B207D3F0E340E340E340E341A264A
:100AD3001A247F212F212F222E4400FF2E2814B702
:100AE300693200020B2A200B1C7A1B30227C3B7DCF
:100AF300230E340E340E340E3478417CB57E04005C
:100B03000160053E041478FB7C216E20FF7CB25209
:100B1300B852B70A037D405E4400017CB560053ED0
:100B2300441478FB7CB942B87D101E147CB57D213A
:100B330060053E241478FB7CB542B722BE34000125
:100B430078487D529E5400107E34000160053E3487
:100B53001478FB7C276E20FF7CB252FE52B67D5286
:100B63009E5400100A337D135E14000160053E1489
:100B73001478FB7CB342FE7D529E5400101E3460F9
:100B8300053E341478FB7CB742B622CA3B7F217FF3
:100B9300309000780BEA301B3A309F117933001400
:100BA3007923001279330018792300167933001C56
:100BB3007923001A90006C693E00020BEA20900032
:100BC3007A793E00021BEA20900070693E00020B16
:100BD300EA2090007E793E00021BEA207F12121168
:100BE300B6900074693E00020BEA20121494DA3BBB
:100BF300227D034D22780A7E3409C4AD317D1380F2
:100C0300006D449D411B0468191B04681E1B046886
:100C1300231B0468280B06782C7D54F58A0A58F5A3
:100C23008C227D54F58B0A58F58D227D54F5CE0A1E
:100C330058F5CD227D54F5CC0A58F5CB227D54F5D9
:100C4300CA0A58F5C9227D13BE14000118167E3452
:100C5300000BAD312E34001D7A71827A6183E0641A
:100C6300FF528822BE14000278167E34000BAD3189
:100C73002E34001D7A71827A6183E064FF529322DD
:100C83007E34000BAD312E34001D7A71827A61837C
:100C9300E064FF52DB227D13BE14000118237E346F
:100CA3000003AD312E34005D7A71827A6183E07E78
:100CB30034000160053E341478FB7CB764FF52A80E
:100CC300227E340003AD312E34005D7A71827A6165
:100CD30083E07E34000160053E341478FB7CB76406
:100CE300FF5295227D13BE14000118217E340003A8
:100CF300AD312E34005D7A71827A6183E07E3400F7
:100D03000160053E341478FB7CB742A8227E340090
:100D130003AD312E34005D7A71827A6183E07E34D3
:100D2300000160053E341478FB7CB74295227D13A5
:100D3300BE14000118147E34000BAD312E34001D97
:100D43007A71827A6183E0428822BE1400027814A9
:100D53007E34000BAD312E34001D7A71827A6183AB
:100D6300E04293227E34000BAD312E34001D7A71A4
:100D7300827A6183E042DB227584017E44041FE4AE
:100D83007A49B01B4478F97EF800077E0400FF7EA1
:100D930014150F0B0A405D446822295000020A25EE
:100DA300693000032E0800050B44800A7E0BB07ADD
:100DB3001BB00B1C0B0C1B4478F280D702009ECA9D
:100DC300797D7390008A1BEA00791E000290008AE5
:100DD300693E00020BEA207971000490008A693EA3
:100DE30000020BEA200B1A307D27120A3A90008A80
:100DF300693E00020BEA20693100027D27120A3A9C
:100E0300DA7922CA7BCA6BCA5BCA4BCA2BCA1BCA12
:100E13000BC0D1C0D0C083C08290005E0BEA304DBE
:100E230033680890005E0BEA3099345388FDD08212
:100E3300D083D0D0D0D1DA0BDA1BDA2BDA4BDA5BE2
:100E4300DA6BDA7B32CA7BCA6BCA5BCA4BCA2BCA60
:100E53001BCA0BC0D1C0D0C083C0829000610BEA13
:100E6300304D3368089000610BEA3099345388F7AA
:100E7300D082D083D0D0D0D1DA0BDA1BDA2BDA4B85
:100E8300DA5BDA6BDA7B32CA7BCA6BCA5BCA4BCAE0
:100E93002BCA1BCA0BC0D1C0D0C083C082900064D0
:100EA3000BEA304D3368089000640BEA30993453F1
:100EB300DAFED082D083D0D0D0D1DA0BDA1BDA2B92
:100EC300DA4BDA5BDA6BDA7B32CA7BCA6BCA5BCA90
:100ED3004BCA2BCA1BCA0BC0D1C0D0C083C08290DF
:100EE30000670BEA304D3368089000670BEA3099CE
:100EF3003453DAFDD082D083D0D0D0D1DA0BDA1BD1
:100F0300DA2BDA4BDA5BDA6BDA7B32CA7BCA6BCA6F
:100F13005BCA4BCA2BCA1BCA0BC0D1C0D0C083C08B
:100F23008290006A0BEA304D33680890006A0BEA3E
:100F330030993453DAFBD082D083D0D0D0D1DA0BBE
:100F4300DA1BDA2BDA4BDA5BDA6BDA7B32CA7BCA6F
:100F53006BCA5BCA4BCA2BCA1BCA0BC0D1C0D0C059
:100F630083C08290001B0BEA304D33680890001B4E
:100F73000BEA309934D082D083D0D0D0D1DA0BDAD7
:100F83001BDA2BDA4BDA5BDA6BDA7B32CA7BCA6B9E
:100F9300CA5BCA4BCA2BCA1BCA0BC0D1C0D0C08301
:100FA300C0829000260BEA304D3368089000260B70
:100FB300EA309934D082D083D0D0D0D1DA0BDA1B87
:100FC300DA2BDA4BDA5BDA6BDA7B32CA7BCA6BCAAF
:100FD3005BCA4BCA2BCA1BCA0BC0D1C0D0C083C0CB
:100FE300829000310BEA304D3368089000310BEAF0
:100FF300309934D082D083D0D0D0D1DA0BDA1BDA57
:101003002BDA4BDA5BDA6BDA7B32CA7BCA6BCA5BED
:10101300CA4BCA2BCA1BCA0BC0D1C0D0C083C08263
:1010230090003C0BEA304D33680890003C0BEA30EB
:101033009934D082D083D0D0D0D1DA0BDA1BDA2B1B
:10104300DA4BDA5BDA6BDA7B32CA7BCA6BCA5BCA0E
:101053004BCA2BCA1BCA0BC0D1C0D0C083C082905D
:1010630000470BEA304D3368089000470BEA30998C
:1010730034D082D083D0D0D0D1DA0BDA1BDA2BDA9A
:101083004BDA5BDA6BDA7B32E490005DF07402904A
:101093000060F07404900063F07405900066F074CF
:1010A30006900069F06D3390005E1BEA309000619A
:1010B3001BEA309000641BEA309000671BEA309013
:1010C300006A1BEA3022BE34004048167E34FEFD1F
:1010D3007E24007E7E1BB044807A1BB07E34FEE00B
:1010E30080147E34FEDD7E24007E7E1BB044807A35
:1010F3001BB07E34FEC07E24007E7E1BB044017A8A
:101103001BB022BE34004048167E34FEFD7E240010
:101113007E7E1BB0547F7A1BB07E34FEE080147E4B
:1011230034FEDD7E24007E7E1BB0547F7A1BB07EAE
:1011330034FEC07E24007E7E1BB054FE7A1BB02298
:101143007F706D337D233E243E242E24004D7A513F
:10115300827A4183691E00020BEA004D0178147AFA
:1011630051827A418379FE00021BEAE07CB77F0754
:101173000200060B34BE34000448C9221B3468172E
:101183001B34681A1B34681D1B3468200B36782205
:10119300758A00758C0022758B00758D002275CEC3
:1011A3000075CD002275CC0075CB002275CA007581
:1011B300C900227F20793200047922000290007A4C
:1011C300693E00020BEA207932000879220006907A
:1011D300007E693E00020BEA207932000C7922007E
:1011E3000A227D13BE14004B08047E14004BBE1468
:1011F300FFB558047E14FFB57E24005A7D311203D7
:10120300507E2407D0AD327D237E340043020A3A58
:10121300CA797D727D237F206D33793200041B2AC6
:1012230020797200027D327E0800C86D221203D538
:101233007D377E0800C86D221203D5DA792253DC8C
:10124300F07CB742DC43DC40E5DC30E5FB53DCDF1C
:10125300E5DD7C6B6C77E5DE0A2B4D3275DD0075C1
:10126300DE000A56C4540F7D3522CA797D73E4909B
:10127300008EF06D3390008F1BEA307D377E2400A3
:10128300017E08FFFF1206BD7D3712117F7D3712E5
:101293000D31DA7922CA796D777D373E343E342EAB
:1012A30034004D7A71827A6183691E00020BEA0071
:1012B30012001E0B74BE74000448DEDA79226D330B
:1012C3009F007D233E243E242E24004D7A51827AB2
:1012D3004183791E00021BEA000B34BE340004482C
:1012E300DF6D33020C49CA3B7F300B3A30121106D3
:1012F300693300021211067E1801F41214010B3A2D
:10130300301210C9693300021210C9DA3B227D0280
:101313007D234D23780ABE140000A9A1D1B392887E
:10132300BE24000178062E14FFFF928A7D327D20B1
:1013330002143612091CE490008EF07E3412989049
:10134300008F1BEA306D337E2400019F007401126D
:1013530006BD6D33020D31CA797D731200529000C0
:1013630086793E00021BEA207D3712117F900086AA
:10137300693E00020BEA20DA7922CA797D73E49090
:10138300008EF06D3390008F1BEA307D376D229F06
:10139300001206BD7D37120C49DA7922CA3B7F3031
:1013A3000B3A30121106693300021211067E18013E
:1013B300F4121401693300021210C9DA3B22CA3B4A
:1013C3007F300B3A30121106693300021211067E88
:1013D3001801F41214010B3A301210C9DA3B227FC0
:1013E300209F00296200067E7004AC672E34004DF6
:1013F3007A71827A6183791E00021BEA00227F01DF
:10140300800E9000840BEA307D231B344D2278F844
:101413007F201B0C4D4578EA227D533E543E547D7C
:101423003260053E341478FB7CB764FF52897CB785
:101433004289227E140003AD137D312E34005E7A7F
:1014430071827A61831BEA20227E14000BAD137D27
:10145300312E34001B7A71827A61831BEA20227E4B
:101463003400437E0800C87E240BB81203D57E34B3
:1014730000430210C97F206D111B2A10793200022C
:10148300792200042212008612108B12091C02001A
:101493005E7F70793700107927000E227CB7540FD6
:1014A30042DF43DF20227F2079320004227E340092
:1014B30043021106007EFED5007EFED7007EFED9D4
:1014C300007EFEDB007EFEF5007EFEF7007EFEF969
:1014D300007EFEFB007EFED2007EFEF2007EFECC8E
:1014E300007EFECD007EFEEC007EFEED007EFEC89B
:1014F300007EFEC9007EFECA007EFECB007EFEE8B3
:10150300007EFEE9007EFEEA007EFEEB00020100A3
:0C151300820000000201008400000000C3
:00000001FF
